:020000020000FC
:040000000C941E003E
:080010000C94F5030C94FD03B0
:04002C000C94050427
:100038000C940D040FEF0DBF08E00EBFF89400E814
:100048000093610004E000936100442755270E9453
:100058007D0200270093040100930B0100930C011B
:100068000093090100930A010CE000930D010AE0D6
:1000780000930E0103E000930F0106E000931001C6
:100088000027009311010093120101E0009305017C
:1000980008EE0093060103E0009307013A983B98A5
:1000A8003C983D98429A439A449A459A57985F9A41
:1000B800209A219A229A239A249A259A389A399A28
:1000C800289829982A982B982C982D9840984198E8
:1000D800529A539A549A559A5A985B985C985D9894
:1000E800569A5E9806E0009368000CE300936C0053
:1000F80000E800936D000E9463020E946D0209B13E
:1001080000930801789450FF09C05E7F453009F4D8
:1001180003C00E943D0202C00E94DB000E94AF00A3
:1001280051FF05C05D7F0E946B030E94F1000E9491
:10013800B9000E94D3000E94DB0000910501013044
:1001480011F00E945B03DFCF09E118E71A95F1F778
:100158000A95D9F70895413009F447C0433009F4A6
:1001680051C0443009F45BC0089500911201013078
:10017800A9F000910D0110911001011779F4009177
:100188000C0110911101011749F400910B01003085
:1001980029F401E00093120105E0402F0895009131
:1001A8001201453011F45E9A08955E98089545301D
:1001B80099F44F9B01C008950E94A8004F9B01C06D
:1001C800089500270093120100E0402F09B1009321
:1001D80008014F9901C0FDCF089500910B0101302E
:1001E80019F40027009312010895329B0E947201AE
:1001F800339B0E947C01349B0E948601359B0E94A0
:1002080090010895329B0E949A01339B0E94A40199
:10021800349B0E94AE01359B0E94B8010895329B21
:100228000E942001339B0E942A01349B0E943401C2
:10023800359B0E943E0108950E94A800329B01C090
:1002480008950E94480132990895FDCF0E94A800A0
:10025800339B01C008950E94510133990895FDCF41
:100268000E94A800349B01C008950E945D01349942
:100278000895FDCF0E94A800359B01C008950E94F3
:10028800660135990895FDCF009110010395083155
:1002980009F400270093100108950091100100301F
:1002A80021F407E10093100108950A9500931001C5
:1002B80008950091110103950C3309F40027009368
:1002C8001101089500911101003021F40BE300930E
:1002D800110108950A950093110108950E94A8003C
:1002E800329B01C008950E94C20132990895FDCF42
:1002F8000E94A800339B01C008950E94CB01339946
:100308000895FDCF0E94A800349B01C008950E9463
:10031800D70134990895FDCF0E94A800359B01C0EC
:1003280008950E94E00135990895FDCF0E94A80024
:10033800329B01C008950E94EC0132990895FDCFC7
:100348000E94A800339B01C008950E94F8013399C8
:100358000895FDCF0E94A800349B01C008950E9413
:10036800050234990895FDCF0E94A800359B01C06D
:1003780008950E94100235990895FDCF00910D014E
:100388000395083109F4002700930D0108950091A1
:100398000D01003021F407E100930D0108950A953D
:1003A80000930D01089500910C0103950C3309F495
:1003B800002700930C01089500910C01003021F4EE
:1003C8000BE300930C0108950A9500930C0108951E
:1003D80020910E0123950E942002201710F009F0A9
:1003E80021E020930E01089520910E01213029F477
:1003F8000E94200200930E0108952A9510930E0181
:10040800089500910F0103950D3009F401E0009360
:100418000F010E943202089500910F01013031F45A
:100428000CE000930F010E94320208950A95009390
:100438000F010E943202089510910F01123051F0FD
:10044800143051F0163041F0193031F01B3021F0E2
:100458000FE108950CE108950EE108950E9420022D
:10046800202F00910E01021719F010F020930E01B1
:10047800089509B11091080117FF0DC007FF01C0C9
:100488000AC00E94A8004F9B01C005C00E945302E9
:100498004F9901C0FDCF09B1009308010895439514
:1004A800453009F444270E947D0201E000930501CC
:1004B80008EE0093060103E000930701089502E0A7
:1004C80004BD02E005BD0CE707BD02E000936E0025
:1004D800089500E0009380000BE0009381000DE395
:1004E8000093890008E00093880002E000936F0001
:1004F8000895F8E0E0EA242F220F220F3327E20FB5
:10050800F31F0591009300010591009301010591E6
:10051800009302010591009303010895003099F0BA
:10052800013099F0023099F0033099F0043099F0D5
:10053800053099F0063099F0073099F0083099F0B5
:10054800093099F008950FE3089506E008950BE542
:1005580008950FE4089506E608950DE608950DE759
:10056800089507E008950FE708950FE608955A984B
:100578005B985C985D980895102F10FF289810FDDF
:10058800289A11FF299811FD299A12FF2A9812FD1D
:100598002A9A13FF2B9813FD2B9A14FF2C9814FDFD
:1005A8002C9A15FF2D9815FD2D9A16FF409816FDCB
:1005B800409A089520910401203029F0213049F013
:1005C800223069F012C0009103010E94C0025A9AB9
:1005D80011C0009102010E94C0025B9A0BC00091F9
:1005E80001010E94C0025C9A05C0009100010E94AE
:1005F800C0025D9A2395243009F422272093040130
:100608000895289829982A982B982C982D984098DE
:10061800089500910D0111270A3018F00A5013951A
:10062800FBCF202F012F0E94920200930001022F7E
:100638000E9492020093010100910C0111270A30D7
:1006480018F00A501395FBCF202F012F0E94920219
:1006580000930201022F0E94920200930301089561
:1006680000910E0111270A3018F00A501395FBCF9C
:10067800202F012F0E94920200930001022F0E9456
:1006880092020093010100910F0111270A3018F01E
:100698000A501395FBCF202F012F0E94920200933E
:1006A8000201022F0E949202009303010895403034
:1006B80009F4AFCF413009F4ACCF423009F4D0CFC0
:1006C800433009F4CDCF443009F464C00895009153
:1006D8000B01039500930B010C33C9F40027009319
:1006E8000B0100910C01039500930C010C3379F474
:1006F800002700930C0100910D01039500930D0153
:10070800083129F4002700930D010E948C030895F5
:1007180000910E01039500930E0110910F01123004
:1007280049F0143079F0163069F0193059F01B305F
:1007380049F010C000910E010D31F1F401E0009371
:100748000E0110C000910E010F31B1F401E00093C9
:100758000E0108C000910E01003271F401E000930F
:100768000E0100C000910F01039500930F010D3099
:1007780019F401E000930F0108950EE500930001BC
:1007880007E70093010108E70093020109E70093D6
:10079800030108950091100111270A3018F00A503A
:1007A8001395FBCF202F012F0E9492020093000186
:1007B800022F0E949202009301010091110111275A
:1007C8000A3018F00A501395FBCF202F012F0E94F2
:1007D800920200930201022F0E94920200930301E9
:1007E80008950F930FB70F9351600F910FBF0F919B
:1007F80018950F930FB70F9351600F910FBF0F917B
:1008080018950F930FB70F9352600F910FBF0F9169
:1008180018950F931F932F930FB70F930E94BB0246
:100828000E940503000000000E94DE0200910901F9
:100838000395009309010A3F91F4002700930901E9
:1008480000910A01039500930A01023041F4002740
:1008580000930A01419B02C0419801C0419A00914E
:100868000501013099F40091060101500093060139
:100878001091070110401093070100910601109193
:100888000701012B19F40027009305010F910FBFF1
:100898002F911F910F91189539383F396D78393854
:1008A8005E7778796D785E77773877505006543D63
:00000001FF
