S012000050726F796563746F20322E737265636B
S11300000C9434000C9451000C9451000C94510045
S11300100C9451000C9451000C9451000C94510018
S11300200C9451000C9451000C9451000C94500306
S11300300C9451000C9451000C9451000C945100F8
S11300400C9451000C9451000C9451000C945100E8
S11300500C9451000C9451000C9451000C945100D8
S11300600C9451000C94510011241FBECFEFD8E022
S1130070DEBFCDBF11E0A0E0B1E0ECEEF8E002C0DD
S113008005900D92AA32B107D9F721E0AAE2B1E0B6
S113009001C01D92AC33B207E1F70E94A9020C948F
S11300A074040C94000080E480937C008FE08093BF
S11300B07E0087E880937A00089587708064809337
S11300C07C0085E38A95F1F70000EAE7F0E080819F
S11300D08064808380917A0086FDFCCFEAE7F0E0BB
S11300E080818064808380917A0086FDFCCF80913A
S11300F07800909179000895811524E0920710F01A
S11301008FEF93E09C01A4EBB0E00E944B042FEF2F
S113011033E040E050E00E942904822F0895FF92CA
S11301200F931F93CF93DF938A30F8F4122FF42E9A
S1130130C82FD0E0CC0FDD1FCC0FDD1FCE018050C7
S113014090400E9462046F2DCE018F5F9F4F0E94EA
S11301506204612FCE018E5F9F4F0E946204602F64
S1130160CE018D5F9F4F0E946204DF91CF911F915A
S11301700F91FF900895AF92BF92CF92DF92EF92CA
S1130180FF920F931F93CF93DF938A3028F5790161
S11301906A015B01C82FD0E0CC0FDD1FCC0FDD1F3F
S11301A0CE01805090400E945A04F5018083CE0114
S11301B08F5F9F4F0E945A04F6018083CE018E5FA9
S11301C09F4F0E945A04F7018083CE018D5F9F4F99
S11301D00E945A04F8018083DF91CF911F910F91FF
S11301E0FF90EF90DF90CF90BF90AF9008950F9362
S11301F01F93CF93DF93C0E042C08C2F0E945D0019
S11302000C2F10E0F801EE0FFF1FEC5FFE4F408152
S113021051819A01220F331F220F331F220F331FE4
S1130220241B350B820F931F96958795969587957A
S113023096958795918380830E947C00D82F282FE0
S113024030E0F801E050FF4F808190E0AC014D5F59
S11302505F4F421753072CF02D5F3F4F2817390784
S11302606CF46D2F81E08C0F0E941503F801E050AF
S1130270FF4FD083F801E45FFE4FD083CF5FC430DB
S113028008F4BBCFDF91CF911F910F9108950F9385
S1130290ECE0F1E0038122814181608180913801A9
S11302A00E948F00809138018F5F809338018430E1
S11302B010F01092380185B1806285B92FEF81EE7C
S11302C094E0215080409040E1F700C0000085B1E7
S11302D08F7D85B90F9108950F931F93CF93DF936B
S11302E000D000D0CDB7DEB78E010C5F1F4F9E014A
S11302F02D5F3F4FAE014E5F5F4FBE016F5F7F4F7B
S1130300809137010E94BB00698181E00E9415033E
S11303106A8182E00E9415036B8183E00E941503C9
S11303206C8184E00E941503ECE0F1E08981808314
S11303308A8181838B8182838C818383809137013D
S11303408F5F80933701843010F0109237010F9043
S11303500F900F900F90DF91CF911F910F910895FF
S1130360CF93DF93D82FC62F82E50E94D0038D2F21
S11303700E94EB038AE30E94D0038C2F0E94EB03BC
S113038088E191E00E94DE03DF91CF9108951F93ED
S1130390CF93DF9362C00E94D7038A3019F08D3067
S11303A009F04CC080913601E82FF0E0E65DFE4F85
S11303B01082843008F43FC080912A018335D9F536
S11303C080912C018A33B9F540912B0110ED140F63
S11303D093E0C0E0D0E013C020ED280F2A3070F481
S11303E09E01220F331FCC0FDD1FCC0FDD1FCC0F5E
S11303F0DD1FC20FD31FC80FD11DE0979F5FE92FE8
S1130400F0E0E65DFE4F80818111E6CFC53BD1056A
S113041010F0C4EBD0E04153443068F46C2F812FCA
S11304200E941503E12FF0E0E55FFE4FC0836C2FBF
S1130430812F0E94B001109236010FC090913601B5
S11304409B3048F4E92FF0E0E65DFE4F80839F5F28
S11304509093360102C0109236010E94CC038111A0
S11304609ACFDF91CF911F910895209139012F5F89
S113047090E019C085B1806285B93FEF43EC89E013
S1130480315040408040E1F700C0000085B18F7DCD
S113049085B93FEF43EC89E0315040408040E1F7BB
S11304A000C000009F5F921728F308950E94E102A4
S11304B00E9453000E94C0038AB18B768AB98BB123
S11304C084698BB984B1806284B985B18F7D85B923
S11304D06AE581E00E9415036AE582E00E94150343
S11304E06AE583E00E9415036AE584E00E9415032F
S11304F00E943502089529B1482F30E0082E02C029
S1130500359527950A94E2F720FD1FC02FEF39EFA8
S113051060E0215030406040E1F700C0000029B1A4
S113052030E0B90102C0759567958A95E2F760FDE0
S11305300EC089B190E0042E02C0959587950A9467
S1130540E2F780FFF6CF81E0089580E0089580E02F
S113055008950E94560287E00E947B02882359F086
S1130560809139018F5F80933901833010F01092AC
S113057039010E94350280913901813039F018F037
S1130580823091F013C00E94F70010C082E00E94F4
S11305907B0281110E94470184E00E947B02882330
S11305A029F00E946C0102C00E94C70180913901A8
S11305B0823089F28FE19EE40197F1F700C00000D8
S11305C0CACF84B1826084B984B1846084B984B1AF
S11305D0886084B98AB180628AB985B18D7F85B912
S11305E085B18B7F85B985B1877F85B98BB18F7DC7
S11305F08BB910928000E1E8F0E01082109285003F
S113060010928400808188608083808182608083EE
S113061083E690E09093890080938800EFE6F0E011
S1130620808182608083789408950F931F93CF9381
S1130630DF938150843078F5653B08F064EBC82F74
S1130640D0E0CC0FDD1FFE01E65EFE4FA081B1813C
S1130650FE01EE5DFE4F00811181A01BB10B262F20
S113066030E00E944B0424EB30E040E050E00E9474
S11306702904200F311F36952795ABE7B4E10E947A
S11306804B049C01369527959FB7F894C05FDE4FC5
S1130690398328839FBFDF91CF911F910F910895D4
S11306A01F920F920FB60F9211242F933F938F93A3
S11306B09F9380913A0190913B01892B61F485B11C
S11306C0826085B985B1846085B985B1886085B952
S11306D08BB180628BB9209110013091110180910E
S11306E03A0190913B018217930718F085B18D7FF1
S11306F085B9209112013091130180913A019091B2
S11307003B018217930718F085B18B7F85B920913F
S113071014013091150180913A0190913B018217A7
S1130720930718F085B1877F85B920911601309120
S1130730170180913A0190913B018217930718F0B9
S11307408BB18F7D8BB980913A0190913B010196D9
S113075090933B0180933A0180913A0190913B013F
S11307608039914020F010923B0110923A019F9100
S11307708F913F912F910F900FBE0F901F9018955E
S11307801092C50087E68093C40088E18093C1007D
S113079086E08093C20008958091C0008078089517
S11307A09091C00095FFFCCF8093C600089580917E
S11307B0C0008823E4F78091C6000895CF93DF93A7
S11307C0EC0103C00E94D003219688818111FACFE5
S11307D0DF91CF9108951F93CF93DF9300D000D082
S11307E0CDB7DEB781111DC080E30E94D00329C0BC
S11307F0E1E0F0E0EC0FFD1FE10FF11D9DEC899F9E
S1130800912D1124969596959695392F330F232F74
S1130810220F220F230F821B805D8083892F1F5F8D
S113082001C010E08111E4CF0AC01150E1E0F0E012
S1130830EC0FFD1FE10FF11D80810E94D003111107
S1130840F4CF0F900F900F900F90DF91CF911F91E5
S11308500895A1E21A2EAA1BBB1BFD010DC0AA1FFD
S1130860BB1FEE1FFF1FA217B307E407F50720F015
S1130870A21BB30BE40BF50B661F771F881F991F90
S11308801A9469F760957095809590959B01AC01D9
S1130890BD01CF010895A29FB001B39FC001A39FE2
S11308A0700D811D1124911DB29F700D811D1124A5
S11308B0911D0895F999FECF92BD81BDF89A9927AB
S11308C080B50895262FF999FECF92BD81BDF89A7F
S11308D0019700B4021639F01FBA20BD0FB6F89480
S10F08E0FA9AF99A0FBE0895F894FFCF1D
S11308EC5A5A5A5A00020002000200025A5A5A5A20
S11308FC1E001E001E001E000A004006D0076009E0
S10D090C6009580258026C075802F3
S9030000FC
