:100000000C9434000C9451000C9451000C94510049
:100010000C9451000C9451000C9451000C9451001C
:100020000C9451000C9451000C9451000C9451000C
:100030000C9451000C9451000C9451000C945100FC
:100040000C9451000C9451000C9451000C945100EC
:100050000C9451000C949C000C9451000C94510091
:100060000C9451000C94510011241FBECFEFD8E026
:10007000DEBFCDBF11E0A0E0B1E0E4EDF2E002C0F0
:1000800005900D92A031B107D9F721E0A0E1B1E0D0
:1000900001C01D92A131B207E1F70E9430010C941A
:1000A00068010C940000482F23B130E002C0359560
:1000B00027958A95E2F791E0F901E170FF2720FF8B
:1000C00090E0DB018C918130D1F4EF2BC1F4EFE5AE
:1000D000FAEE3197F1F700C0000023B130E002C022
:1000E000359527954A95E2F791E0A901417055278A
:1000F00020FF90E0452B19F4DB011C920895FB01D1
:10010000908380E00895ECE7F0E0108280818064C5
:100110008083808180628083808186608083EAE73B
:10012000F0E0108280818068808380818860808395
:1001300080818760808308951F920F920FB60F927F
:1001400011248F93EF93FF93809179008093100196
:10015000EAE7F0E0808180648083FF91EF918F91E6
:100160000F900FBE0F901F90189588B1806388B9CB
:1001700008951092C1008FEF8AB91BB884B18C7FAB
:1001800084B985B1836085B984B18C6384B985B144
:10019000837C85B987B1816087B988B18E7F88B942
:1001A00087B18E6387B988B1817C88B90E94B50018
:1001B0000895E82FF0E0E050FF4F808195B1937CE7
:1001C00095B998B1917F98B980FF03C095B19460BB
:1001D00095B981FF03C095B1986095B982FF03C0BE
:1001E00095B1906195B983FF03C095B1906295B9BF
:1001F00084FF03C098B1926098B985FF03C098B19D
:10020000946098B986FF03C088B1886088B9089562
:10021000CF93DF93D82FD295DF70C82FCF700E9475
:10022000B5008D2F0E94D90088B18F7E88B98FE3E9
:100230009FE10197F1F700C000000E94B5008C2FEC
:100240000E94D90088B18F7D88B98FE39FE1019723
:10025000F1F700C000000E94B500DF91CF91089532
:10026000CF93DF9300D0CDB7DEB781E089838A8357
:100270000E94B9000E9483007894EAE7F0E0808150
:10028000806480831BB810E0BE016F5F7F4F80E009
:100290000E945300882311F01F5F1BB9BE016E5FDF
:1002A0007F4F81E00E945300882311F011501BB949
:1002B00080911001811720F088B1816088B903C056
:1002C00088B18E7F88B9809110010E940801DCCF2F
:0402D000F894FFCFD0
:1002D4003F065B4F666D7D077F6F777C395E797172
:00000001FF
