:020000020000FC
:020000001CC022
:100038005EC00FEF0DBF08E00EBF549A559A569A4E
:10004800579A389A399A3A9A3B9A3C9A5C985D98AA
:100058005E985F98409841984298439A449A00273E
:100068000093000100930101009302010093030132
:1000780002E004BD05E005BD0BE907BD002706BD8C
:1000880002E005BB02E000936E007894FFCFEF9387
:10009800FF93F1E0E0E7E00F0027F01F0491FF91E4
:1000A800EF9108952F933F93202F2F702295207F53
:1000B8003BB13F70322B3BB9202F269526952695CC
:1000C8002695277038B1387F322B38B93F912F9158
:1000D80008952F9320910301222329F028B1449AEF
:1000E80043982F910895439A44982F9108950F9318
:1000F8001F932F931FB71F93009100010395043698
:10010800D0F00027009300010091010103950A3007
:1001180078F0002700930101009102010395063051
:1001280020F000270093020108C00093020105C0D7
:100138000093010102C0009300010091030121E036
:100148000227017000930301002319F000910201B6
:1001580002C0009101019BDFA5DFBBDF1F911FBF1C
:100168002F911F910F9118953F065B4F666D7D0784
:080178007F6F00000000000091
:00000001FF
