:100000000C9434000C9446000C9446000C9446006A
:100010000C9446000C9446000C9446000C94460048
:100020000C9446000C9446000C9446000C94460038
:100030000C9446000C9446000C9459010C94460014
:100040000C9446000C9446000C9446000C94460018
:100050000C9446000C9446000C9446000C94460008
:100060000C9446000C94460011241FBECFEFD8E03C
:10007000DEBFCDBF21E0A0E0B1E001C01D92A23003
:10008000B207E1F70E9484000C94B7010C940000C1
:10009000ACE7B0E01C92EAE7F0E010828C9180645B
:1000A0008C9380818768808308958770ECE7F0E007
:1000B0009081907F892B8083EAE7F0E080818064E3
:1000C000808380917A0086FDFCCF809178009091AA
:1000D000790008959C01A4EBB0E00E94A8012FEFE5
:1000E00033E040E050E00E948601822F08959C0199
:1000F000A4E6B0E00E94A8012FEF33E040E050E01A
:100100000E948601822F08950E9448000E94D0001C
:100110000E9429010E943C0184E00E9455000E9437
:100120006A000E94C9008FE19EE40197F1F700C0C8
:10013000000085E00E9455000E946A000E94240190
:100140008FE19EE40197F1F700C0000086E00E9475
:1001500055000E9477000E9453018FE19EE40197B1
:10016000F1F700C00000D8CF853B08F084EB282FC2
:1001700030E0A0EDB7E00E94A80124EB30E040E0C1
:1001800050E00E948601C9018C509E4F880F991F34
:1001900008950E94B4009093890080938800089588
:1001A00084B1826084B9A0E8B0E01C92E1E8F0E09C
:1001B00010828C9182688C9380818A6180838FE326
:1001C0009CE990938700809386008AE50E94C9008D
:1001D0000895CF92DF92EF92FF920F931F93853B8A
:1001E00008F084EB90E0A0E0B0E0AC01BD01440F6A
:1001F000551F661F771F480F591F6A1F7B1F440F2B
:10020000551F661F771F440F551F661F771F8A01F2
:100210009B01000F111F221F331F68017901C81AAB
:10022000D90AEA0AFB0AC701B60124EB30E040E034
:1002300050E00E94860188E0820F1F910F91FF908D
:10024000EF90DF90CF9008950E94E9008093B40072
:1002500008958AB188608AB9A0EBB0E01C92E1EB06
:10026000F0E010828C9183628C9380818760808320
:100270008AE50E94240108958AB180628AB98BB10F
:100280008F7D8BB914BC15BC84B5826084BD85B5E7
:10029000836085BD88E187BDEEE6F0E08081826005
:1002A000808378940895853608F084E68093000171
:1002B00008951F920F920FB60F9211248F939F9360
:1002C000809101018F5F809301018091010184364B
:1002D00068F01092010180910001882321F08BB118
:1002E00080628BB903C08BB18F7D8BB99091010176
:1002F00080910001981718F08BB18F7D8BB99F9179
:100300008F910F900FBE0F901F901895A1E21A2E9B
:10031000AA1BBB1BFD010DC0AA1FBB1FEE1FFF1FA9
:10032000A217B307E407F50720F0A21BB30BE40BF9
:10033000F50B661F771F881F991F1A9469F7609540
:100340007095809590959B01AC01BD01CF010895FA
:10035000A29FB001B39FC001A39F700D811D112406
:10036000911DB29F700D811D1124911D0895F89467
:02037000FFCFBD
:00000001FF
