S01400005072655F6C6162365F616C6F2E737265638A
S11300000C9434000C943E000C943E000C943E007E
S11300100C943E000C943E000C943E000C943E0064
S11300200C943E000C943E000C943E000C943E0054
S11300300C943E000C943E000C943E000C943E0044
S11300400C943E000C943E000C943E000C943E0034
S11300500C943E000C943E000C943E000C943E0024
S11300600C943E000C943E0011241FBECFEFD8E048
S1130070DEBFCDBF0E9480000C948E000C94000063
S11300801092C50087E68093C40088E18093C10084
S113009086E08093C20008959091C00095FFFCCF44
S11300A08093C60008958091C0008823E4F780916E
S11300B0C6000895CF93DF9300D000D0CDB7DEB74C
S11300C019821A821B821C820BC089819A81AB819E
S11300D0BC810196A11DB11D89839A83AB83BC8326
S11300E089819A81AB81BC818032914AA740B10554
S11300F064F30F900F900F900F90DF91CF910895BC
S11301000E9440008FEF84B915B881E40E944C002E
S11301100E945A000E94530085B9F7CFF894FFCF8C
S9030000FC
