:020000020000FC
:100000000FEF0DBF08E00EBF3C983D9856985798EB
:100010002498529A539A549A559A209A219A229A3D
:10002000239A389A399A3A9A3B9A259A00E005B968
:1000300008B90BB9449A459A5E9A5F9A2C9A00E8DF
:100040000093610004E000936100002744275527D6
:1000500066270E9430000E943E000E945C00F9CF9B
:1000600006B100730033C1F041D016B11073101700
:1000700099F414FF45D015FF46D00EC009B1007C9D
:10008000003C99F033D019B1107C101771F416FFB1
:1000900045D017FF46D009C02BB1237C342F3F70C9
:1000A000330F330F232B2BB9089525B1207F352F24
:1000B0003F70232B25B9089503B104FD089516D090
:1000C00003B104FD0895642F650F362F307F303063
:1000D00011F02D9A01C02D9828B1207F362F3F7046
:1000E000232B28B91C9BFECF01D008957FE08FE021
:1000F0009FE09A95F1F78A95D9F77A95C1F7089517
:1001000043954F7003C04A954F7004C0349BFECF97
:10011000EDDF0895359BFECFE9DF089553955F70BD
:1001200003C05A955F7004C04E9BFECFDFDF089579
:080130004F9BFECFDBDF0895B9
:00000001FF
