S00C00004C6162362E73726563D3
S11300000C9434000C9449000C9449000C9449005D
S11300100C9449000C9449000C9449000C94490038
S11300200C9449000C9449000C9449000C94490028
S11300300C9449000C9449000C9449000C94490018
S11300400C9449000C9449000C9449000C94490008
S11300500C9449000C9449000C9449000C944900F8
S11300600C9449000C94490011241FBECFEFD8E032
S1130070DEBFCDBF11E0A0E0B1E0ECE7F3E002C0E9
S113008005900D92A43EB107D9F70E948E010C94FD
S1130090BC010C9400001092C50087E68093C40054
S11300A088E18093C10086E08093C2000895909116
S11300B0C00095FFFCCF8093C60008958091C000D6
S11300C08823E4F78091C6000895CF93DF93EC0171
S11300D003C00E945700219688818111FACFDF91D5
S11300E0CF9108951F93CF93DF9300D000D01F9238
S11300F0CDB7DEB7AC01892B91F580E30E945700A0
S11301003FC09A01ADECBCEC0E94AD019695879579
S113011096958795969587959C01220F331F880F96
S1130120991F880F991F880F991F820F931F9A0197
S1130130281B390BC901E1E0F0E0EC0FFD1FE10FD2
S1130140F11D805D80839A010E94AD01AC0156953A
S1130150479556954795569547951F5F01C010E002
S11301604115510571F60AC01150E1E0F0E0EC0FC1
S1130170FD1FE10FF11D80810E9457001111F4CF82
S11301800F900F900F900F900F90DF91CF911F91D0
S11301900895ECE7F0E01082808180648083EAE7D0
S11301A0F0E0108280818068808380818760808312
S11301B00895EAE7F0E080818064808380917A008A
S11301C086FDFCCF80917800909179000895CF93BB
S11301D0DF9300D000D0CDB7DEB719821A821B821C
S11301E01C820BC089819A81AB81BC810196A11DBF
S11301F0B11D89839A83AB83BC8389819A81AB8146
S1130200BC81803E9349A440B10564F30F900F90E4
S11302100F900F90DF91CF91089585B1807C85B9BF
S11302208BB18F738BB9089584B18F6384B98AB10C
S1130230806C8AB90E940D010895CF93C82F0E9443
S11302400D01C0FF03C085B1816085B9C1FF03C042
S113025085B1826085B9C2FF03C085B1846085B968
S1130260C3FF03C085B1886085B9C4FF03C085B1ED
S1130270806185B9C5FF03C085B1806285B9C6FFB9
S113028003C08BB180648BB9CC231CF48BB1806820
S11302908BB9CF91089580E091E00E9465008DE1D3
S11302A091E00E94650082E091E00E9465008BE28B
S11302B091E00E94650083E491E00E94650085E579
S11302C091E00E9465000895CF93DF930E94D900C6
S11302D0EC018DE691E00E946500CE010E9472005F
S11302E088E291E00E946500DF91CF910895CF9359
S11302F089E891E00E9465000E945E00C82F0E9478
S1130300570088E291E00E9465008C2F0E941D0135
S113031081EA91E00E946500CF9108950E944B000C
S11303200E94C9000E9414010E944B010E945E00B9
S1130330C82F0E945700C13319F0C23321F006C000
S11303400E94640107C00E94770104C08BEB91E016
S11303500E9465000E94E700E7CFA29FB001B39F0F
S1130360C001A39F700D811D1124911DB29F700DBA
S10F0370811D1124911D0895F894FFCF05
S113037C0D0A3D3D3D3D3D3D3D3D3D3D3D3D3D3D00
S113038C3D3D3D3D3D3D3D3D3D3D0D0A00204D4532
S113039C4E552055415254200D0A003129204C65EC
S11303AC657220706F74656E63696F6D6574726FBE
S11303BC0D0A00322920456E76696172204153433F
S11303CC49490D0A0053656C656363696F6E65205A
S11303DC756E61206F7063696F6E3A20000D0A565A
S11303EC616C6F722064656C20706F74656E6369E8
S11303FC6F6D6574726F3A20000D0A496E677265F1
S113040C736520756E2063617261637465723A2042
S113041C004153434949206D6F73747261646F20BA
S113042C656E204C4544732E0D0A000D0A4F706303
S113043C696F6E206E6F2076616C6964612E204941
S113044C6E74656E7465206F7472612076657A2E95
S107045C0D0A000081
S9030000FC
