:020000020000FC
:1000000008C03F065B4F666D7D077F6F777C395E6A
:1000100079710FEF0DBF08E00EBFF89400E8009370
:10002000610004E00093610000E00093C100389A91
:10003000399A3A9A3B9A3C9A3D9A209A409841982C
:100040004298439844984598289821982298299A4C
:100050002A9A442755276627529A539A549A559AB2
:10006000569A5A985B985C985D985E983327AA27B1
:100070003BD016D003D008D042D0FCCF19990895B8
:100080001BD008D00DD008951A9908951CD005D022
:1000900007D0089543954F7008954A954F7008957D
:1000A000F0E0E2E0E40FF61F2491522F5F7358B99D
:1000B000289826FD289A08950DD019990895199B1E
:1000C000FECF08D0089506D01A9908951A9BFECF46
:1000D00001D0089570E28FE09FE09A95F1F78A953C
:1000E000D9F77A95C1F7089500E006BD0BE907BD81
:1000F00002E004BD03E005BD02E005BB089505B3C1
:1001000001FF089502E005BBA395A43629F4AA27B0
:1001100033953F7002D00AD00895032F0F70000F5F
:10012000000F1BB1137C102B1BB90895032F0F7008
:10013000142F1F70011719F44E9A3327EEDF08951C
:00000001FF
